:020000040800F2
:10000000180500209D0100084D2C0008751B0008F4
:10001000492C0008A9020008693900080000000006
:10002000000000000000000000000000D52C0008C7
:10003000AD02000800000000D12C0008352D00089A
:10004000B7010008B7010008B7010008B7010008B0
:10005000B7010008B7010008B7010008B7010008A0
:10006000B7010008B7010008B7010008B701000890
:10007000B7010008B7010008B7010008B701000880
:10008000B7010008B7010008B7010008B701000870
:10009000B7010008B7010008B7010008B701000860
:1000A000B7010008B7010008B7010008B701000850
:1000B000B7010008B7010008B7010008B701000840
:1000C000B7010008B7010008B7010008B701000830
:1000D000B701000859390008B7010008B701000846
:1000E000B7010008B7010008B7010008B701000810
:1000F000B7010008B7010008B7010008B701000800
:10010000B7010008B7010008B7010008B7010008EF
:10011000B7010008B7010008B7010008B7010008DF
:10012000B7010008B7010008B7010008B7010008CF
:10013000B7010008B7010008B7010008B7010008BF
:10014000B7010008B7010008B7010008B7010008AF
:10015000B7010008B7010008B7010008B70100089F
:10016000B7010008B7010008B7010008B70100088F
:10017000B7010008B7010008B7010008000000003F
:10018000B7010008B7010008DFF80CD000F07AF8DA
:1001900000480047413A00081805002006488047FB
:1001A00006480047FEE7FEE7FEE7FEE7FEE7FEE75C
:1001B000FEE7FEE7FEE7FEE7012E000889010008E2
:1001C0002DE9F05F0546002092469B46884606468C
:1001D000814640241BE0284641464746224600F01F
:1001E00041F853465A46C01A914110D31146184659
:1001F000224600F028F82D1A67EB01084F462246E8
:100200000120002100F01FF817EB00094E41201ECD
:10021000A4F10104DFDC484631462A464346BDE8E6
:10022000F09FD2B201E000F8012B491EFBD27047CB
:100230000022F6E710B513460A4604461946FFF7B2
:10024000F0FF204610BD202A04DB203A00FA02F11C
:10025000002070479140C2F1200320FA03F31943B4
:1002600090407047202A04DB203A21FA02F0002156
:10027000704721FA02F3D040C2F1200291400843B6
:1002800019467047064C074D06E0E06840F0010350
:1002900094E8070098471034AC42F6D3FFF778FF94
:1002A000FC5200081C530008FFE7FEE770470000FF
:1002B00070470000B0B589B09C4696460C4605468E
:1002C0000890079106920593002004900598B0F5D8
:1002D000804FCDF80CC0CDF808E00194009522D1F4
:1002E000FFE70898069950F821000490049800212F
:1002F000CCF6F07108400490079801684268836862
:10030000D0F80CC041EA021141EA032141EA0C4154
:100310008069084304990843049004980899069A50
:1003200041F8220006E0089806996FF0704240F804
:100330002120FFE7002009B0B0BD000010B585B056
:100340000A46034604900391002002900498039902
:10035000096850F82100029002988021CFF6F071D0
:100360000840029003984168D0F808C0D0F80CE02B
:10037000046941EA0C0141EA0E012143D0F814C09E
:1003800041EA0C01D0F818C041EA0C01D0F81CC0B9
:1003900041EA0C01D0F820C041EA0C01D0F824C099
:1003A00041EA0C01D0F828C041EA0C01D0F82CC079
:1003B00041EA0C01D0F83CC041EA0C01006B084353
:1003C00002990843029003988068082801920093DC
:1003D00005D1FFE7029840F040000290FFE7029845
:1003E0000499039A126841F82200002005B010BD5C
:1003F00070B587B013468C468646069005910492E8
:10040000002003900699049A01EB82014968039148
:10041000039901F04041039105990A684C688D6881
:10042000CE6842EA041242EA052242EA06420C6918
:100430000025CFF6F07505EB045422434C69FE34D9
:1004400042EA046289691143039A114303910399B3
:10045000069A049C02EB840251600293CDF804C01A
:10046000CDF800E007B070BD83B00146019001985F
:1004700090F835000228009107D0FFE7019880210D
:10048000416501208DF80B000EE00198052180F8F0
:10049000351001980068016821F001010160FFE753
:1004A00000208DF80B00FFE79DF80B0003B07047AC
:1004B00080B584B001460390009100F085FA029067
:1004C0000398019001980130002809D0FFE740F21D
:1004D0000800C2F200000078019908440190FFE78B
:1004E000FFE700F071FADDF808E0A0EB0E00DDF8A0
:1004F00004E0704501D2FFE7F3E704B080BD0000DF
:1005000080B58CB000200B900A900990089007905D
:1005100040F21000C2F200000068002801D0FFE79E
:1005200045E040F21000C2F2000001210160FFE747
:100530000020069043F63800C4F20200016841F042
:1005400001010160006800F0010006900698059026
:10055000FFE74FF680700790022008900021099174
:1005600003220A920C230B9341F2000CC4F2020CFA
:100570000DF11C0E049060460391714602920193A6
:10058000CDF800E000F016F84EF2B3700790049832
:10059000089003990991029A0A92019B0B9340F6E5
:1005A0000040C4F20200009900F004F8FFE70CB02C
:1005B00080BD000091B00A46034610900F910020C4
:1005C0000D900C900B900E9009920893FFE70E98F7
:1005D0000F2800F2D481FFE70E98012101FA00F004
:1005E0000D900F9800680D9908400C900C980D998B
:1005F000884240F0BF81FFE70F984068022805D08D
:10060000FFE70F984068122826D1FFE710980E994F
:100610006FF0030202EA51010844006A0B900E9841
:1006200000F0070080000F2101FA00F00B9921EA89
:1006300000000B900F9800690E9901F007018900E6
:1006400088400B9908430B900B9810990E9B02EA77
:10065000530211440862FFE7109800680B900E984F
:100660004000032101FA00F00B9921EA00000B90F1
:100670000F98406800F003000E99490088400B99DC
:1006800008430B900B98109908600F984068012858
:100690000FD0FFE70F98406802280AD0FFE70F98B5
:1006A0004068112805D0FFE70F98406812282FD125
:1006B000FFE7109880680B900E984000032101FA24
:1006C00000F00B9921EA00000B900F98C0680E997A
:1006D000490088400B9908430B900B98109988604B
:1006E000109840680B900E98012101FA00F00B99C8
:1006F00021EA00000B900F984068C0F300100E999B
:1007000088400B9908430B900B9810994860FFE7BD
:100710001098C0680B900E984000032101FA00F079
:100720000B9921EA00000B900F9880680E99490000
:1007300088400B9908430B900B981099C8600F984C
:100740004068C000002840F11481FFE7FFE7002067
:100750000A9043F64400C4F20200016841F480416B
:100760000160006800F480400A900A980790FFE753
:100770000E9820F0030043F60801C4F2010140582E
:100780000B900E9800F0030080000F2101FA00F09A
:100790000B9921EA00000B9010980021C4F202018D
:1007A000884203D1FFE7002006905EE0109840F2F7
:1007B0000041C4F20201884203D1FFE70120059005
:1007C00050E0109840F60001C4F20201884203D1C3
:1007D000FFE70220049042E0109840F60041C4F286
:1007E0000201884203D1FFE70320039034E0109810
:1007F00041F20001C4F20201884203D1FFE7042064
:10080000029026E0109841F20041C4F202018842B1
:1008100003D1FFE70520019018E0109841F6000190
:10082000C4F20201884203D1FFE7062000900AE0EB
:10083000109841F60041C4F202010822884208BF24
:1008400007220092FFE700980190FFE701980290CD
:10085000FFE702980390FFE703980490FFE70498EE
:100860000590FFE705980690FFE70698C0B20E993D
:1008700001F00301890088400B9908430B900B9805
:100880000E9921F0030143F60802C4F201028850D8
:1008900043F60040C4F2010000680B900C980B99DD
:1008A00021EA00000B900F984068C003002805D58E
:1008B000FFE70C980B9908430B90FFE70B9843F662
:1008C0000041C4F20101086043F60440C4F2010093
:1008D00000680B900C980B9921EA00000B900F9880
:1008E00040688003002805D5FFE70C980B99084362
:1008F0000B90FFE70B9843F60441C4F20101086036
:1009000043F60840C4F2010000680B900C980B9964
:1009100021EA00000B900F984068C002002805D51E
:10092000FFE70C980B9908430B90FFE70B9843F6F1
:100930000841C4F20101086043F60C40C4F2010012
:1009400000680B900C980B9921EA00000B900F980F
:1009500040688002002805D5FFE70C980B990843F2
:100960000B90FFE70B9843F60C41C4F201010860BD
:10097000FFE7FFE7FFE70E9801300E9027E611B082
:100980007047000080B585B013468C4686460490BB
:10099000ADF80E108DF80D209DF80D000028029383
:1009A000CDF804C0CDF800E005D0FFE7BDF80E009B
:1009B0000499886105E0BDF80E000004049988617F
:1009C000FFE705B080BD000040F21010C2F2000049
:1009D0000068704740F20800C2F20000007840F260
:1009E0001011C2F200010A6810440860704700004C
:1009F00080B582B043F60040C4F20200016841F4C1
:100A000000710160016841F480610160016841F496
:100A100080710160032000F0A5F80020019000F033
:100A200007F8009000F040F8019802B080BD000087
:100A300080B584B00146029040F20400C2F200008A
:100A4000006840F20802C2F2000212784FF47A7392
:100A5000B3FBF2F2B0FBF2F0019100F0B5FE00281A
:100A600004D0FFE701208DF80F0018E002980F284E
:100A70000DD8FFE702994FF0FF30002200F04CF84C
:100A8000029840F20C01C2F20001086003E001206C
:100A90008DF80F0003E000208DF80F00FFE79DF8B0
:100AA0000F0004B080BD000080B584B0FFE70020D7
:100AB000039043F64400C4F20200016841F480410F
:100AC0000160006800F48040039003980190FFE704
:100AD000FFE70020029043F64000C4F202000168E4
:100AE00041F080510160006800F08050029002984F
:100AF0000090FFE7052000F035F804B080BD00004D
:100B000080B582B001468DF807009DF9070000917D
:100B100002F02CFF02B080BD80B58AB013468C462F
:100B200086468DF8270008910792002006900593CD
:100B3000CDF810C0CDF80CE002F034FF06909DF91E
:100B400027000699089A079B0290084611461A4604
:100B500002F07EF8029901900846019902F02AFFFE
:100B60000AB080BD80B582B0014601900198009125
:100B700002F046FF02B080BD80B588B00A46034649
:100B800006900591069800280392029304D1FFE78E
:100B900001208DF81F0025E1059843F60041C4F2BD
:100BA0000201096801F00F01884212D9FFE7059898
:100BB00043F60041C4F202010870086800F00F001B
:100BC0000599884204D0FFE701208DF81F0009E154
:100BD000FFE706980068800700282AD5FFE70698F7
:100BE00000684007002809D5FFE743F60800C4F273
:100BF0000200016841F4E0510160FFE706980068D7
:100C00000007002809D5FFE743F60800C4F20200F8
:100C1000016841F460410160FFE743F60800C4F257
:100C20000200016821F0F001069A92681143016008
:100C3000FFE706980068C007002870D0FFE7069815
:100C40004068012811D1FFE743F60000C4F202001A
:100C5000006800F400300021B1EB504F04D1FFE7F1
:100C600001208DF81F00BDE02CE0069840680228A6
:100C700005D0FFE706984068032811D1FFE743F647
:100C80000000C4F20200006800F000700021B1EB27
:100C9000506F04D1FFE701208DF81F00A2E010E0A3
:100CA00043F60000C4F20200006800F002000021D8
:100CB000B1EB500F04D1FFE701208DF81F0091E048
:100CC000FFE7FFE743F60800C4F20200016821F0E5
:100CD0000301069A526811430160FFF775FE049004
:100CE000FFE743F60800C4F20200006800F00C00C1
:100CF00006994968B0EB810F10D0FFE7FFF764FE5B
:100D0000DDF810E0A0EB0E0041F2893E704504D3FF
:100D1000FFE703208DF81F0064E0E2E7FFE7059896
:100D200043F60041C4F20201096801F00F01884254
:100D300012D2FFE7059843F60041C4F202010870A1
:100D4000086800F00F000599884204D0FFE70120F1
:100D50008DF81F0046E0FFE706980068400700286E
:100D60000CD5FFE743F60800C4F20200016821F445
:100D7000E051069AD26811430160FFE706980068C7
:100D8000000700280DD5FFE743F60800C4F2020073
:100D9000016821F46041069A126941EAC2010160CA
:100DA000FFE700F053F843F6080EC4F2020EDEF837
:100DB00000E05FFA8EFE4FEA1E1E43F6FA21C0F6EF
:100DC000000111F80E10C84040F20401C2F2000107
:100DD000086000200190FFF72BFE01998DF81F108D
:100DE0000090FFE79DF81F0008B080BD40F20400AE
:100DF000C2F200000068704780B5FFF7F7FF43F6C6
:100E0000080EC4F2020EDEF800E0CEF3822E43F6A6
:100E10000A31C0F6000111F80E10C84080BD000074
:100E200080B5FFF7E3FF43F6080EC4F2020EDEF8CA
:100E300000E01FFA8EFE4FEA5E3E43F60A31C0F62E
:100E4000000111F80E10C84080BD000080B586B0CA
:100E50000020059004900390029043F60800C4F22D
:100E60000200006800F00C0001460028019108D043
:100E7000FFE7019804280AD0FFE7019808280CD062
:100E80004FE042F20040C0F2F40002904FE047F61B
:100E90004000C0F27D10029049E043F60400C4F225
:100EA0000200016801F03F0105910068400200283E
:100EB00013D5FFE743F60400C4F202000068C0F354
:100EC000881047F64001C0F27D11A0FB0101059A90
:100ED0000023FFF775F9049012E043F60400C4F212
:100EE00002000068C0F3881042F20041C0F2F40131
:100EF000A0FB0101059A0023FFF762F90490FFE7C8
:100F000043F60400C4F20200006800F440300221FD
:100F100001EBD030039004980399B0FBF1F00290FC
:100F200005E042F20040C0F2F4000290FFE70298B0
:100F300006B080BD80B588B00146069006980028AE
:100F4000029104D1FFE701208DF81F0027E30698E6
:100F50000068C007002800F0AB80FFE743F60800F8
:100F6000C4F20200006800F00C00042813D0FFE770
:100F700043F60800C4F20200006800F00C000828E4
:100F80001FD1FFE743F60400C4F2020000684002EC
:100F9000002816D5FFE743F60000C4F202000068FF
:100FA00000F400300021B1EB504F09D0FFE7069864
:100FB0004068002804D1FFE701208DF81F00EEE211
:100FC00075E0FFE706984068B0F5803F09D1FFE77C
:100FD00043F60000C4F20200016841F48031016070
:100FE00020E006984068B0F5A02F0DD1FFE743F64A
:100FF0000000C4F20200016841F480210160016830
:1010000041F4803101600CE043F60000C4F20200BC
:10101000016821F480310160016821F480210160C0
:10102000FFE7FFE7FFE70698406800281FD0FFE7CB
:10103000FFF7CAFC0590FFE743F60000C4F2020088
:10104000006800F400300021B1EB504F0ED1FFE7F3
:10105000FFF7BAFCDDF814E0A0EB0E00652804D31E
:10106000FFE703208DF81F0099E2E5E71EE0FFF798
:10107000ABFC0590FFE743F60000C4F202000068F5
:1010800000F400300021B1EB504F0ED0FFE7FFF726
:101090009BFCDDF814E0A0EB0E00652804D3FFE70D
:1010A00003208DF81F007AE2E5E7FFE7FFE7FFE79F
:1010B000069800688007002840F19B80FFE743F610
:1010C0000800C4F20200006810F00C0F13D0FFE714
:1010D00043F60800C4F20200006800F00C00082883
:1010E0002CD1FFE743F60400C4F20200006840027E
:1010F000002823D4FFE743F60000C4F20200006892
:1011000000F002000021B1EB500F09D0FFE7069874
:10111000C068012804D0FFE701208DF81F003EE2DF
:1011200043F60000C4F20200016821F0F801069ABB
:10113000126941EAC2010160FFE759E00698C06800
:10114000002830D0FFE70020C4F2472001210160D1
:10115000FFF73AFC0590FFE743F60000C4F20200F7
:10116000006800F002000021B1EB500F0ED1FFE744
:10117000FFF72AFCDDF814E0A0EB0E00032804D3EF
:10118000FFE703208DF81F0009E2E5E743F60000C2
:10119000C4F20200016821F0F801069A126941EADE
:1011A000C201016023E00020C4F247200021016059
:1011B000FFF70AFC0590FFE743F60000C4F20200C7
:1011C000006800F002000021B1EB500F0ED0FFE7E5
:1011D000FFF7FAFBDDF814E0A0EB0E00032804D3C0
:1011E000FFE703208DF81F00D9E1E5E7FFE7FFE700
:1011F000FFE7069800680007002850D5FFE706982B
:101200004069002825D0FFE740F68060C4F24720FF
:1012100001210160FFF7D8FB0590FFE743F674005A
:10122000C4F20200006800F002000021B1EB500F90
:101230000ED1FFE7FFF7C8FBDDF814E0A0EB0E00CE
:10124000032804D3FFE703208DF81F00A7E1E5E79B
:1012500024E040F68060C4F2472000210160FFF7DF
:10126000B3FB0590FFE743F67400C4F20200006888
:1012700000F002000021B1EB500F0ED0FFE7FFF7A6
:10128000A3FBDDF814E0A0EB0E00032804D3FFE776
:1012900003208DF81F0082E1E5E7FFE7FFE70698EE
:1012A00000684007002840F1D680FFE700208DF855
:1012B000130043F64000C4F202000068C00000289A
:1012C00016D4FFE7FFE70020039043F64000C4F286
:1012D0000200016841F080510160006800F0805018
:1012E000039003980190FFE701208DF81300FFE7BA
:1012F00047F20000C4F200000068C005002824D4B2
:10130000FFE747F20000C4F20000016841F4807179
:101310000160FFF759FB0590FFE747F20000C4F2B8
:1013200000000068C00500280ED4FFE7FFF74CFB63
:10133000DDF814E0A0EB0E00032804D3FFE7032040
:101340008DF81F002BE1E8E7FFE7FFE706988068CC
:10135000012809D1FFE743F67000C4F202000168DA
:1013600041F0010101601FE00698806805280DD159
:10137000FFE743F67000C4F20200016841F0040187
:101380000160016841F0010101600CE043F670006A
:10139000C4F20200016821F001010160016821F03E
:1013A00004010160FFE7FFE7FFE706988068002877
:1013B00021D0FFE7FFF708FB0590FFE743F6700039
:1013C000C4F20200006800F002000021B1EB500FEF
:1013D00010D1FFE7FFF7F8FADDF814E0A0EB0E00FC
:1013E00041F2893E704504D3FFE703208DF81F00CA
:1013F000D5E0E3E720E0FFF7E7FA0590FFE743F6E3
:101400007000C4F20200006800F002000021B1EB9D
:10141000500F10D0FFE7FFF7D7FADDF814E0A0EB8C
:101420000E0041F2893E704504D3FFE703208DF89A
:101430001F00B4E0E3E7FFE79DF81300012809D19E
:10144000FFE743F64000C4F20200016821F080513A
:101450000160FFE7FFE706988069002800F09B80A5
:10146000FFE743F60800C4F20200006800F00C0039
:10147000082800F08B80FFE706988069022860D179
:10148000FFE76020C4F2472000210160FFF79CFACB
:101490000590FFE743F60000C4F20200006800F088
:1014A00000700021B1EB506F0ED0FFE7FFF78CFA10
:1014B000DDF814E0A0EB0E00032804D3FFE70320BF
:1014C0008DF81F006BE0E5E70698C169026A436A80
:1014D000D0F828C0114341EA83114FEACC324FF6CD
:1014E000FF739A43A2F580321143C06A41EA00605B
:1014F00043F60401C4F2020108606020C4F24720F0
:1015000001210160FFF760FA0590FFE743F6000054
:10151000C4F20200006800F000700021B1EB506FCF
:101520000ED1FFE7FFF750FADDF814E0A0EB0E0054
:10153000032804D3FFE703208DF81F002FE0E5E721
:1015400023E06020C4F2472000210160FFF73CFA4D
:101550000590FFE743F60000C4F20200006800F0C7
:1015600000700021B1EB506F0ED0FFE7FFF72CFAAF
:10157000DDF814E0A0EB0E00032804D3FFE70320FE
:101580008DF81F000BE0E5E7FFE703E001208DF891
:101590001F0004E0FFE700208DF81F00FFE79DF823
:1015A0001F0008B080BD000080B584B001460290E5
:1015B00002980028019104D1FFE701208DF80F0067
:1015C00050E00298406A002801D1FFE7FFE7029847
:1015D00000218162029890F85100002808D1FFE7AD
:1015E0000298002180F85010029800F03FF8FFE7C1
:1015F0000298022180F8511002980068016821F0D9
:10160000400101600298016842688368D0F80CC00C
:101610001A4342EA0C0203691A4343691A43836975
:1016200003F400731A43C3691A43036A1A43806AB6
:10163000104308600298418B01F004010268406A7F
:101640000843506002980068C16921F40061C161DB
:101650000298002141650298012280F851208DF8FE
:101660000F10FFE79DF80F0004B080BD80B58CB06F
:1016700001460B9000200A90099008900790069070
:101680000B98006843F20002C4F2010290420391F9
:1016900036D1FFE7FFE70020059043F64400C4F28F
:1016A0000200016841F480510160006800F480503C
:1016B000059005980290FFE7FFE70020049043F6AD
:1016C0003000C4F20200016841F0020101600068CC
:1016D00000F00200049004980190FFE73820069083
:1016E00002200790002008900320099005200A900E
:1016F00040F20040C4F2020006A9FEF75BFFFFE7DC
:101700000CB080BD80B58EB013468C4686460C90DA
:101710000B910A920C9800280993CDF820C0CDF8BF
:101720001CE004D1FFE701208DF837003DE00C9864
:1017300090F84900002808D1FFE70C98002180F8B4
:1017400048100C9800F036F8FFE70C9850F8081B8A
:10175000069008460699FEF7F1FD0C99DDF82CE09D
:101760000A6889680590104604917146049AFEF74C
:101770003FFE0C990A9AD1F804E08B68096B03903C
:101780007046029111461A46029BFEF793FD0C9992
:101790000A68896852F8213043F0010342F8213089
:1017A00000218DF837100190FFE79DF837000EB04B
:1017B00080BD000080B582B0014601900091FEF727
:1017C0009FFE02B080BD000080B582B0014601904E
:1017D0000198009101F080FA02B080BD82B001460C
:1017E0000190009102B0704780B58CB001460B901B
:1017F0000B98006800680A900B980068C068099010
:101800000B980068406908900020079006900A989D
:1018100000F00F00079007980028059112D1FFE70C
:101820009DF82800800600280BD5FFE79DF82400CE
:101830008006002805D5FFE70B9801F089FD04908C
:10184000E0E0FFE70798002800F0BA80FFE79DF886
:101850002000C007002807D1FFE7BDF8240010F4DE
:10186000907F00F0AD80FFE79DF82800C0070028BA
:101870000CD0FFE79DF82500C007002806D0FFE741
:101880000B98C16B41F00101C163FFE79DF828008F
:10189000400700280CD5FFE79DF82000C00700286E
:1018A00006D0FFE70B98C16B41F00201C163FFE76F
:1018B0009DF82800800700280CD5FFE79DF8200040
:1018C000C007002806D0FFE70B98C16B41F0040168
:1018D000C163FFE79DF82800000700280CD5FFE74B
:1018E0009DF82000C007002806D0FFE70B98C16BC9
:1018F00041F00801C163FFE70B98C06B00285ED080
:10190000FFE79DF82800800600280BD5FFE79DF82B
:1019100024008006002805D5FFE70B9801F018FD8C
:101920000390FFE70B9800684069C0F380100690B1
:101930000B98C06B0007002804D4FFE70698002826
:1019400033D0FFE70B9801F0D7FC0B980068406993
:101950004006002824D5FFE70B980068416921F074
:10196000400141610B98406B002814D0FFE70B98B1
:10197000406B43F2D521C0F6000101650B98406B26
:10198000FEF772FD002805D0FFE70B98406B016D54
:101990008847FFE703E00B98FFF720FFFFE703E02E
:1019A0000B98FFF71BFFFFE708E00B98FFF716FF08
:1019B0000B984FF0000EC0F83CE0FFE7FFE721E096
:1019C0009DF82800000600280BD5FFE79DF82400AD
:1019D0000006002805D5FFE70B9801F069FF02908B
:1019E00010E09DF82800400600280BD5FFE79DF881
:1019F00024004006002805D5FFE70B9801F092FC73
:101A00000190FFE70CB080BD80B584B00146029024
:101A100002980028019104D1FFE701208DF80F0002
:101A200041E002988069002801D0FFE700E0FFE76D
:101A3000029890F83900002808D1FFE702980021A9
:101A400080F83810029800F033F8FFE7029824215C
:101A500080F8391002980068C16821F40051C16013
:101A6000029801F0F1FC02980068016921F49041AC
:101A7000016102980068416921F02A0141610298E0
:101A80000068C16841F40051C16002980021C1633F
:101A900002984FF0200E80F839E0029880F83AE082
:101AA0008DF80F10FFE79DF80F0004B080BD000017
:101AB00080B58EB001460D9000200C900B900A90DE
:101AC000099008900D98006841F20002C4F20102EA
:101AD0009042059140D1FFE7FFE70020079043F6D1
:101AE0004400C4F20200016841F010010160006886
:101AF00000F01000079007980490FFE7FFE7002030
:101B0000069043F63000C4F20200016841F0010182
:101B10000160006800F00100069006980390FFE75E
:101B20004FF4C06008900220099001200A90032021
:101B30000B9007200C900020C4F2020008A9FEF7C9
:101B400039FD2520002102900191019AFEF7E4FF62
:101B50000298FEF7D5FFFFE70EB080BD82B00146C8
:101B60000190009102B0704782B00146019000914F
:101B700002B07047FFE7FEE780B588B00146ADF8D8
:101B80001E000020069040F20010C2F20000028801
:101B900005924288059B5A430592808846F60402C6
:101BA0009042049120D1FFE740F20010C2F2000001
:101BB0008079012818D1FFE740F20010C2F200003E
:101BC000002181712A2242812B23838103900846C0
:101BD0000292019300F05EFC012003998871019844
:101BE0004881029A8A8105E000200090009900F067
:101BF00051FCFFE700F0B4FE4FF0000ECDF818E006
:101C0000FFE70698059988420BD2FFE7BDF81E0052
:101C10000021C6F208010880FFE70698013006900F
:101C2000EFE708B080BD000080B582B001468DF8B6
:101C300007009DF807000028009176D1FFE740F2E9
:101C40000010C2F2000000218171F02101804FF4E8
:101C5000A0714180808849F24131884214D0FFE769
:101C600040F20010C2F20000808846F6040188426B
:101C70000AD0FFE740F20010C2F20000808845F26F
:101C80001031884226D1FFE740F20010C2F2000076
:101C90002C2101812A2141812B218181808846F6D6
:101CA000040188420AD0FFE740F20010C2F20000AF
:101CB000808845F2103188420BD1FFE740F20010D6
:101CC000C2F200004FF4A07101804FF4F071418026
:101CD000FFE729E040F20010C2F20000808845F2E0
:101CE0001051884214D1FFE740F20010C2F2000008
:101CF0004FF4305101814FF4285141814FF42C5160
:101D000081814FF4F07101804FF4487141800AE005
:101D100040F20010C2F20000222101812021418105
:101D200021218181FFE7FFE785E040F20010C2F248
:101D30000000012181714FF4A0710180F0214180E8
:101D4000808849F2413188420AD0FFE740F2001012
:101D5000C2F20000808845F2103188420BD1FFE7C3
:101D600040F20010C2F200002C2101812A214181A1
:101D70002B2181813FE040F20010C2F200008088F8
:101D800046F6040188420BD1FFE740F20010C2F290
:101D900000002C2101812B2141812A21818129E010
:101DA00040F20010C2F20000808845F210518842D3
:101DB00014D1FFE740F20010C2F200004FF430519E
:101DC00001814FF4285141814FF42C5181814FF40E
:101DD000487101804FF4F07141800AE040F2001038
:101DE000C2F2000022210181212141812021818133
:101DF000FFE7FFE7FFE740F20010C2F20000808833
:101E000046F6040188420AD0FFE740F20010C2F211
:101E10000000808845F2103188420BD1FFE740F284
:101E20000010C2F200004FF4F07101804FF4A07175
:101E30004180FFE7FFE7002000F00EF902B080BD0F
:101E400080B58AB013468C468646ADF82600ADF8BC
:101E50002410ADF8222040F20010C2F20000808869
:101E600049F2413188420793CDF818C0CDF814E00B
:101E70000AD0FFE740F20010C2F20000808845F26D
:101E8000103188421ED1FFE740F20010C2F200007C
:101E900041890490084600F051FD9DF8270000F0AC
:101EA0003BFD9DF8260000F037FD0498808900F086
:101EB00045FD9DF8250000F02FFD9DF8240000F061
:101EC0002BFD98E040F20010C2F20000808845F23D
:101ED000105188422AD1FFE740F20010C2F2000000
:101EE00041890390084600F029FD9DF8270000F085
:101EF00013FD03984189013188B200F01FFD9DF860
:101F0000260000F009FD0398808900F017FD9DF878
:101F1000250000F001FD03988189013188B200F0AD
:101F20000DFD9DF8240000F0F7FC63E040F2001086
:101F3000C2F20000808846F60401884232D1FFE7F1
:101F400040F20010C2F20000807901280CD1FFE7B6
:101F500040F20010C2F2000000880138BDF82610DF
:101F6000401AADF82600FFE740F20010C2F2000070
:101F700041890290084600F0E1FC9DF8270000F03E
:101F8000CBFC9DF8260000F0C7FC0298808900F089
:101F9000D5FC9DF8250000F0BFFC9DF8240000F062
:101FA000BBFC26E040F20010C2F20000807901285C
:101FB0000CD1FFE740F20010C2F2000000880138A7
:101FC000BDF82610401AADF82600FFE740F20010D9
:101FD000C2F200004189BDF8262001900846114652
:101FE00000F0CAFC01988089BDF8241000F0C4FC00
:101FF000FFE7FFE7FFE740F20010C2F200000089B0
:102000004FF6FE71C6F207010880BDF822000021DC
:10201000C6F2080108800AB080BD000081B000202F
:10202000C6F208000088ADF80200BDF8020001B059
:102030007047000080B582B00146ADF80600BDF8DB
:102040000600009100F07AFC0520FEF731FAFFF758
:10205000E5FF02B080BD000080B58AB001468DF872
:1020600027000020ADF82400ADF8220040F2001057
:10207000C2F2000080790128079138D1FFE740F2D1
:102080000010C2F20000808846F6040188422ED07B
:10209000FFE79DF8270001460728069126D80699F4
:1020A000DFE801F004080C1014181C2006208DF83D
:1020B00027001BE007208DF8270017E004208DF88B
:1020C000270013E005208DF827000FE001208DF890
:1020D00027000BE000208DF8270007E003208DF893
:1020E000270003E002208DF82700FFE7FFE740F21A
:1020F0000010C2F20000808849F2413188421FD0AE
:10210000FFE740F20010C2F20000808846F60401AA
:10211000884215D0FFE740F20010C2F2000080882C
:1021200045F2103188420BD0FFE740F20010C2F2B6
:102130000000808845F21051884240F05A81FFE744
:102140009DF8270001460728059138D80599DFE852
:1021500001F004050C131A21282F30E0BDF82400EB
:1021600040F08000ADF8240029E0BDF8240040F0E4
:102170004000ADF8240022E0BDF8240040F0C0008B
:10218000ADF824001BE0BDF8240040F02000ADF8BD
:10219000240014E0BDF8240040F06000ADF82400F5
:1021A0000DE0BDF8240040F0A000ADF8240006E0EA
:1021B000BDF8240040F0E000ADF82400FFE740F255
:1021C0000010C2F20000808845F21051884205D10B
:1021D000FFE74FF45850ADF8220003E03620ADF889
:1021E0002200FFE740F20010C2F20000808845F2B2
:1021F0001031884211D0FFE740F20010C2F2000017
:10220000808845F21051884207D0FFE7BDF82400CE
:1022100040F00800ADF82400FFE740F20010C2F2E1
:102220000000808846F60401884207D1FFE7BDF828
:10223000240040F00200ADF82400FFE7BDF82200C2
:10224000BDF8241000F098FBBDF82400800600289B
:1022500008D4FFE740F20010C2F2000080790128A4
:1022600017D1FFE740F20010C2F200000188408859
:1022700081420DDAFFE740F20010C2F2000001884F
:10228000ADF8201041880180BDF820104180FFE7A3
:1022900016E040F20010C2F200000188408881423E
:1022A0000DDDFFE740F20010C2F200000188ADF83A
:1022B000201041880180BDF820104180FFE7FFE732
:1022C00040F20010C2F20000808845F210518842AE
:1022D00059D1FFE740F20010C2F20000418904909A
:1022E000084600F02BFB0020039000F015FB04983B
:1022F0004189013188B200F021FB039800F00CFB0A
:1023000004984189023188B200F018FB04980188D2
:102310000139C1F30F2000F0FFFA0498418903311D
:1023200088B200F00BFB049801880139C8B200F0B4
:10233000F3FA0498808900F001FB039800F0ECFAAE
:1023400004988189013188B200F0F8FA039800F00E
:10235000E3FA04988189023188B200F0EFFA049818
:1023600041880139C1F30F2000F0D6FA0498818921
:10237000033188B200F0E2FA049841880139C8B20A
:1023800000F0CAFA34E040F20010C2F200004189C5
:102390000290084600F0D2FA0020019000F0BCFA4A
:1023A000019800F0B9FA029801880139C1F30F20B1
:1023B00000F0B2FA029801880139C8B200F0ACFA14
:1023C0000298808900F0BAFA019800F0A5FA019805
:1023D00000F0A2FA029841880139C1F30F2000F001
:1023E0009BFA029841880139C8B200F095FAFFE7DC
:1023F0004EE09DF8270001460728009138D8009943
:10240000DFE801F0040B12191A21282FBDF824006F
:1024100040F03000ADF824002AE0BDF8240040F080
:102420001000ADF8240023E0BDF8240040F02000A7
:10243000ADF824001CE01BE0BDF8240040F038009B
:10244000ADF8240014E0BDF8240040F02800ADF8F9
:1024500024000DE0BDF8240040F01800ADF8240081
:1024600006E0BDF8240040F00800ADF82400FFE7C6
:102470000320ADF82200BDF8240040F48050ADF8F0
:102480002400BDF82200BDF8241000F075FAFFE723
:102490000AB080BD80B588B00A460346ADF81E007C
:1024A000ADF81C1040F20010C2F20000808849F222
:1024B00041318842069205930AD0FFE740F20010AE
:1024C000C2F20000808845F2103188421ED1FFE739
:1024D00040F20010C2F2000041890490084600F06A
:1024E0002DFA9DF81F0000F017FA9DF81E0000F06D
:1024F00013FA0498808900F021FA9DF81D0000F07D
:102500000BFA9DF81C0000F007FA98E040F200106A
:10251000C2F20000808846F60401884232D1FFE70B
:1025200040F20010C2F20000807901280CD1FFE7D0
:1025300040F20010C2F2000000880138BDF81E1001
:10254000401AADF81E00FFE740F20010C2F2000092
:1025500041890390084600F0F1F99DF81F0000F052
:10256000DBF99DF81E0000F0D7F90398808900F090
:10257000E5F99DF81D0000F0CFF99DF81C0000F072
:10258000CBF95BE040F20010C2F20000808845F217
:10259000105188422AD1FFE740F20010C2F2000039
:1025A00041890290084600F0C9F99DF81F0000F02B
:1025B000B3F902984189013188B200F0BFF99DF862
:1025C0001E0000F0A9F90298808900F0B7F99DF883
:1025D0001D0000F0A1F902988189013188B200F054
:1025E000ADF99DF81C0000F097F926E040F20010CC
:1025F000C2F20000807901280CD1FFE740F2001000
:10260000C2F2000000880138BDF81E10401AADF873
:102610001E00FFE740F20010C2F200004189BDF841
:102620001E2001900846114600F0A6F90198808905
:10263000BDF81C1000F0A0F9FFE7FFE7FFE708B0C6
:1026400080BD000070B588B0DDF830C09E461446ED
:102650000D460646ADF81E00ADF81C108DF81B2087
:102660008DF81A308DF819C0BDF81C00ADF81400B3
:102670009DF81A00C108012202EBD0024307002B8B
:1026800018BF11464FEA500001FB00F08DF813000F
:102690009DF81B00A0F120008DF81B004FF00000FA
:1026A0008DF81600CDF80CE0029401950096FFE736
:1026B0009DF816009DF81310884280F2B080FFE765
:1026C0009DF81A000C2810D1FFE79DF81B0000EBC5
:1026D000400043F61231C0F6000101EB80009DF886
:1026E0001610405C8DF818002AE09DF81A0010289A
:1026F0000ED1FFE79DF81B0043F68671C0F600017E
:1027000001EB00109DF81610405C8DF8180016E0E3
:102710009DF81A00182810D1FFE79DF81B0000EB68
:10272000C00044F27651C0F6000101EB80009DF834
:102730001610405C8DF8180000E070E0FFE7FFE73E
:1027400000208DF81700FFE79DF8170007285FDCD1
:10275000FFE79DF81800000600280CD5FFE7BDF83C
:102760001E00BDF81C1040F21402C2F200021288D2
:10277000FFF766FB11E09DF8190000280CD1FFE778
:10278000BDF81E00BDF81C1040F20002C2F20002AB
:102790001288FFF755FBFFE7FFE79DF818004000A0
:1027A0008DF81800BDF81C000130ADF81C00BDF814
:1027B0001E0040F20011C2F200010988884201DBCC
:1027C000FFE72CE0BDF81C00BDF81410401A9DF87E
:1027D0001A10884215D1FFE7BDF81400ADF81C00AF
:1027E000BDF81E000130ADF81E00BDF81E0040F21D
:1027F0000011C2F200010988884201DBFFE70EE008
:1028000006E0FFE79DF8170001308DF817009BE701
:10281000FFE79DF8160001308DF8160048E708B074
:1028200070BD0000F0B58BB0DDF844C0DDF840E0CD
:102830001C4615460E460746ADF82A00ADF828108E
:10284000ADF82620ADF824308DF823E09DF82A005D
:102850008DF82200BDF82A00BDF826100844ADF816
:102860002600BDF82800BDF824100844ADF8240067
:10287000CDF81CC00694059504960397FFE71198C0
:10288000007800217E28029108DCFFE7119800788B
:1028900000211F28C8BF01210291FFE70298C0074D
:1028A000002836D0FFE7BDF82A00BDF82610884280
:1028B0000CDBFFE79DF82200ADF82A009DF823000D
:1028C000BDF828100844ADF82800FFE7BDF828003F
:1028D000BDF82410884201DBFFE71AE0BDF82A00AA
:1028E000BDF82810119A12789DF82330EC464FF06D
:1028F000000ECCF800E0FFF7A5FE9DF82300BDF820
:102900002A1001EB5000ADF82A0011980130119007
:10291000B5E70BB0F0BD000082B00146ADF806008F
:10292000BDF80600ADF80600BDF806000022C6F2AC
:1029300008021080009102B07047000082B001468A
:10294000ADF80600BDF80600ADF80600BDF80600BB
:102950004FF6FE72C6F207021080009102B0704777
:1029600040F20010C2F2000000894FF6FE71C6F27C
:10297000070108807047000083B00A460346ADF89F
:102980000A00ADF80810BDF80A004FF6FE71C6F255
:1029900007010880BDF808000021C6F20801088080
:1029A0000192009303B0704780B590B000200F9063
:1029B0000E900D900C900B900A9009900890079043
:1029C0000690059004900390029040F27001C2F2CC
:1029D00000014FF020420A6040F20412CAF20002E5
:1029E0004A608860C860086110224A618861C861D5
:1029F000086248624FF480538B62C8624FF4804390
:102A00000B634863886348640F2309930A934FF06C
:102A1000180CCDF82CC00C900D924FF0110CCDF885
:102A200038C00F904FF0030ECDF808E00393022357
:102A3000049305900692CDF81CC0089009A802AA3C
:102A4000019008460199FEF75DFE002803D0FFE7DC
:102A5000FDF72EFCFFE710B080BD000080B596B0FA
:102A6000002015901490139012901190FFE7002011
:102A7000109043F63000C4F20200016841F00401F6
:102A80000160006800F00400109010980A90FFE7C1
:102A9000FFE700200F9043F63000C4F20200016807
:102AA00041F080010160006800F080000F900F98F5
:102AB0000990FFE7FFE700200E9043F63000C4F2D4
:102AC0000200016841F002010160006800F00200AC
:102AD0000E900E980890FFE7FFE700200D9043F658
:102AE0003000C4F20200016841F01001016000688A
:102AF00000F010000D900D980790FFE7FFE7002011
:102B00000C9043F63000C4F20200016841F0080165
:102B10000160006800F008000C900C980690FFE738
:102B2000FFE700200B9043F63000C4F2020001687A
:102B300041F001010160006800F001000B900B986A
:102B40000590FFE740F20040C4F20200032100229A
:102B5000049003910292FDF715FF20201190029836
:102B600012900121139140F60000C4F2020011AA54
:102B7000019111460092FDF71DFD019811901290F0
:102B800002991391039A149204980099FDF712FD8B
:102B900002201190019812900299139114910498B7
:102BA0000099FDF707FD4FF47040119002981290C4
:102BB0000199139104980099FDF7FCFC16B080BDB3
:102BC00080B540F21800C2F2000043F20001C4F2E6
:102BD000010101604FF48271416000218160C16098
:102BE00002220261012242614FF400728261C161DE
:102BF0000162416281620A21C162FEF7D5FC0028B0
:102C000003D0FFE7FDF754FBFFE780BD80B540F23E
:102C1000C000C2F2000041F20001C4F201010160F3
:102C20004FF4E131416000218160C16001610C22FB
:102C300042618161C161FEF7E7FE002803D0FFE732
:102C4000FDF736FBFFE780BDFFE7FEE770470000BA
:102C500080B58BB013468C4686460A90099108923F
:102C60000A9800F0070007900798C0F107000528B0
:102C70000493CDF80CC0CDF808E003D3FFE704209F
:102C8000019004E00798C0F107000190FFE7019868
:102C9000069007980430062803D8FFE7002000902C
:102CA00003E0079803380090FFE700980590099823
:102CB0000699012202FA01F101390840059988407C
:102CC000089B02FA01F10139194008430BB080BD9D
:102CD000704700007047000080B584B00146029044
:102CE00002980138B0F1807F019103D3FFE7012002
:102CF00003901BE0029801384EF21401CEF200015D
:102D000008604FF0FF300F2100F054FE4EF2180023
:102D1000CEF20000002101604EF21000CEF2000061
:102D20004FF0070EC0F800E00391FFE7039804B0EE
:102D300080BD000080B5FDF74DFE80BD80B596B02A
:102D40000AA83021FDF774FA002009900890079036
:102D500006900590FFE70020049043F64000C4F27F
:102D60000200016841F080510160006800F080506D
:102D7000049004980290FFE7FFE70020039047F2D9
:102D80000000C4F20000016841F480410160006865
:102D900000F48040039003980190FFE702200A901E
:102DA00001210D9110210E91109000211191082107
:102DB0001291A82113911490042015900AA8FEF7EF
:102DC000B9F8002803D0FFE7FDF772FAFFE70F20FC
:102DD000059002200690002007904FF4A050089024
:102DE0004FF48050099005A80521FDF7C5FE002885
:102DF00003D0FFE7FDF75CFAFFE716B080BD0000E7
:102E00004EF68850CEF20000016841F47001016076
:102E100043F60000C4F20200016841F001010160C4
:102E200043F60801C4F2020100220A6001684FF66D
:102E3000FF73CFF6F6631940016043F60401C4F254
:102E4000020143F21003C2F200430B60016821F457
:102E50008021016043F60C00C4F2020002604EF6CD
:102E60000850CEF200004FF0006101607047000092
:102E700080B594B000201390322112900846119131
:102E8000FDF716FB01211298FFF776FD1198FDF76B
:102E90000FFB1298FFF7CEF840F20011C2F20001CA
:102EA00088808888FF2814DBFFE740F20010C2F218
:102EB000000080884FF6FF7188420AD0FFE740F299
:102EC0000010C2F200008088B0F5134F40F0CE80B1
:102ED000FFE7D320FFF732FDFFF7A0F840F2001E16
:102EE000C2F2000EAEF80400CDF840E0FFF796F80D
:102EF000DDF840E0AEF80400FFF790F8DDF840E0C0
:102F0000AEF80400BEF804000002AEF80400FFF7BB
:102F100085F8DDF840E0BEF804100843AEF8040080
:102F2000BEF8040049F24131884200F09E80FFE77C
:102F3000BF20FFF703FDFFF771F840F2001EC2F259
:102F4000000EAEF80400CDF83CE0FFF767F8DDF8BE
:102F50003CE0AEF80400FFF761F8DDF83CE0AEF8C5
:102F60000400FFF75BF8DDF83CE0AEF80400BEF8C3
:102F700004000002AEF80400FFF750F8DDF83CE072
:102F8000BEF804100843AEF80400BEF8040046F68C
:102F90000401884268D0FFE7D420FFF7CFFCFFF799
:102FA0003DF840F2001EC2F2000EAEF80400CDF86B
:102FB00038E0FFF733F8DDF838E0AEF80400FFF74B
:102FC0002DF8DDF838E0AEF80400BEF80400000289
:102FD000AEF80400FFF722F8DDF838E0BEF8041080
:102FE0000843AEF80400BEF8040045F210318842F0
:102FF00039D0FFE74FF45A40FFF7A0FCFFF70EF877
:1030000040F2001EC2F2000EAEF804004FF45B4026
:10301000CDF834E0FFF792FCFFF700F8DDF834E07C
:10302000AEF80400BEF804000002AEF804004FF44D
:103030005C40FFF783FCFEF7F1FFDDF834E0BEF8FB
:1030400004100843AEF80400BEF80400B0F5004FC9
:1030500008D1FFE740F20010C2F2000045F2105123
:103060008180FFE7FFE7FFE7FFE7FFE7CF20FFF7FC
:1030700065FC00200C90FFF74FFC13980130139073
:10308000C1200B90FFF748FC30200A90FFF744FC6A
:10309000ED20FFF753FC6420FFF73EFC0320FFF711
:1030A0003BFC1220FFF738FC8120FFF735FCE820BD
:1030B000FFF744FC8520FFF72FFC10200990FFF755
:1030C0002BFC7A20FFF728FCCB20FFF737FC3920B8
:1030D000FFF722FC2C20FFF71FFC0C98FFF71CFCCD
:1030E0003420FFF719FC0220FFF716FCF720FFF74A
:1030F00025FC2020FFF710FCEA20FFF71FFC0C98AE
:10310000FFF70AFC0C98FFF707FCC020FFF716FC3E
:103110001B20FFF701FC0B98FFF710FC0120089023
:10312000FFF7FAFBC520FFF709FC0A98FFF7F4FB4D
:103130000A98FFF7F1FBC720FFF700FCB720FFF765
:10314000EBFB3620FFF7FAFB4820FFF7E5FB3A20C0
:10315000FFF7F4FB5520FFF7DFFBB120FFF7EEFB95
:103160000C98FFF7D9FB1A20FFF7D6FBB620FFF724
:10317000E5FB0A200790FFF7CFFBA220FFF7CCFB6F
:10318000F220FFF7DBFB0C98FFF7C6FB2620FFF7CA
:10319000D5FB0898FFF7C0FBE020FFF7CFFB0F201F
:1031A0000690FFF7B9FB2A200590FFF7B5FB282012
:1031B000FFF7B2FB08200490FFF7AEFB0E20FFF7ED
:1031C000ABFB0498FFF7A8FB5420FFF7A5FBA92051
:1031D000FFF7A2FB4320FFF79FFB0798FFF79CFB3D
:1031E0000698FFF799FB0C98FFF796FB0C98FFF7F2
:1031F00093FB0C98FFF790FB0C98FFF78DFBE120F9
:10320000FFF79CFB0C98FFF787FB1520FFF784FB6B
:103210001720FFF781FB0720FFF77EFB11200390AB
:10322000FFF77AFB0620FFF777FB2B200290FFF7D2
:1032300073FB5620FFF770FB3C20FFF76DFB05206A
:10324000FFF76AFB0998FFF767FB0698FFF764FB37
:103250003F200190FFF760FB0198FFF75DFB0698A8
:10326000FFF75AFB0298FFF769FB0C98FFF754FB36
:103270000C98FFF751FB0898FFF74EFB0198FFF7FA
:103280004BFB0598FFF75AFB0C98FFF745FB0C9892
:10329000FFF742FB0C98FFF73FFBEF20FFF73CFBEB
:1032A0000398FFF74BFB7820FDF702F92920FFF781
:1032B00045FB0898FEF7B8FC48F28420C4F2402091
:1032C000DDF820E0C0F800E04FF6FF70FEF754FC98
:1032D00014B080BD80B584B0014603900398806B24
:1032E000029002980022C2850298C284029801913D
:1032F000FEF774FA04B080BD82B0014601900198D7
:103300000068C26822F49072C26001980068426945
:1033100022F0010242610198202280F83A200091B7
:1033200002B0704780B582B00146019001980068F4
:10333000C26822F04002C2600198202280F8392041
:1033400001980091FEF710FC002002B080BD000043
:1033500080B584B001460290029890F83A00222885
:10336000009169D1FFE702988068B0F5805F20D1B5
:10337000FFE70298806A01900298006900280CD14A
:10338000FFE70298006840686FF35F2001990880AA
:103390000298816A023181620AE0029800684068FE
:1033A000C0B2019908800298816A01318162FFE709
:1033B00019E002980069002809D1FFE70298006827
:1033C000406802998A6A531C8B6210700AE0029866
:1033D0000068406800F07F0002998A6A531C8B6283
:1033E0001070FFE7FFE70298C18D0139C18508041D
:1033F00000281DD1FFE702980068C16821F0200174
:10340000C16002980068C16821F48071C1600298AF
:103410000068416921F0010141610298202180F892
:103420003A100298FEF79AFB00208DF80F0007E093
:1034300000208DF80F0003E002208DF80F00FFE759
:103440009DF80F0004B080BD70B5B8B0014637904C
:1034500037980068006920F44050379A1368D268A2
:1034600010431861379882680369D0F814C0C069A6
:103470001A4342EA0C021043369037980068C0683D
:1034800049F20C629043369A1043379A1268D06022
:1034900037980068406920F44070379A1368926941
:1034A000104358613798C069B0F5004F359140F02E
:1034B0000081FFE73798006841F20001C4F2010182
:1034C000884209D0FFE73798006841F20041C4F212
:1034D0000101884276D1FFE7FDF7A2FC4FF0190EFB
:1034E00000FB0EF0379949684900B0FBF1F048F253
:1034F0001F51C5F2EB11A0FB01026FF00F0303EAAD
:103500005202CDF8D0E0339132903192FDF788FC31
:1035100034994843379A52685200B0FBF2F0309029
:10352000FDF77EFC34994843379A52685200B0FB4D
:10353000F2F0339AA0FB02035B094FF0640EDDF852
:10354000C0C003FB1EC34FF0320C0CEBC303A3FB44
:103550000234F82505EA5414319D05EB44042F90FC
:10356000CDF8B8E0CDF8B4C02C932B94FDF758FCFF
:1035700034994843379A52685200B0FBF2F02A90CF
:10358000FDF74EFC34994843379A1368526852004D
:10359000B0FBF2F0339AA0FB020C4FEA5C1CDDF8A2
:1035A000B8E02A9C0CFB1E4C2D9C04EBCC0CACFB15
:1035B00002C5C5F342152B9E35449D602990CDF878
:1035C000A0C075E0FDF718FC4FF0190E00FB0EF0DF
:1035D000379949684900B0FBF1F048F21F51C5F234
:1035E000EB11A0FB01026FF00F0303EA5202CDF8CA
:1035F0009CE0269125902492FDF7FEFB27994843F5
:10360000379A52685200B0FBF2F02390FDF7F4FBBA
:1036100027994843379A52685200B0FBF2F0269A35
:10362000A0FB02035B094FF0640EDDF88CC003FBC6
:103630001EC34FF0320C0CEBC303A3FB0234F8257E
:1036400005EA5414249D05EB44042290CDF884E04F
:10365000CDF880C01F931E94FDF7CEFB27994843F9
:10366000379A52685200B0FBF2F01D90FDF7C4FB90
:1036700027994843379A136852685200B0FBF2F01A
:10368000269AA0FB020C4FEA5C1CDDF884E01D9C2E
:103690000CFB1E4C209C04EBCC0CACFB02C5C5F310
:1036A00042151E9E35449D601C90CDF86CC0FFE70E
:1036B000FCE03798006841F20001C4F20101884241
:1036C00009D0FFE73798006841F20041C4F20101D8
:1036D000884275D1FFE7FDF7A3FB4FF0190E00FB01
:1036E0000EF0379949688900B0FBF1F048F21F519C
:1036F000C5F2EB11A0FB01026FF00F0303EA5202C7
:10370000CDF868E0199118901792FDF789FB1A9986
:103710004843379A52689200B0FBF2F01690FDF7DA
:103720007FFB1A994843379A52689200B0FBF2F037
:10373000199AA0FB02035B094FF0640EDDF858C034
:1037400003FB1EC34FF0320C0CEB0313A3FB02343C
:10375000F02505EA5414179D2C441590CDF850E03F
:10376000CDF84CC012931194FDF75AFB1A994843B7
:10377000379A52689200B0FBF2F01090FDF750FBC0
:103780001A994843379A136852689200B0FBF2F0D6
:10379000199AA0FB020C4FEA5C1CDDF850E0109C6B
:1037A0000CFB1E4C139C04EB0C1CACFB02C5C5F3BC
:1037B0004315119E35449D600F90CDF838C074E0DC
:1037C000FDF71AFB4FF0190E00FB0EF03799496810
:1037D0008900B0FBF1F048F21F51C5F2EB11A0FBDC
:1037E00001026FF00F0303EA5202CDF834E00C91AE
:1037F0000B900A92FDF700FB0D994843379A5268E7
:103800009200B0FBF2F00990FDF7F6FA0D994843EB
:10381000379A52689200B0FBF2F00C9AA0FB0203B8
:103820005B094FF0640EDDF824C003FB1EC34FF0AC
:10383000320C0CEB0313A3FB0234F02505EA5414FD
:103840000A9D2C440890CDF81CE0CDF818C00593D3
:103850000494FDF7D1FA0D994843379A52689200C3
:10386000B0FBF2F00390FDF7C7FA0D994843379A81
:10387000136852689200B0FBF2F00C9AA0FB020CA5
:103880004FEA5C1CDDF81CE0039C0CFB1E4C069C04
:1038900004EB0C1CACFB02C5C5F34315049E354478
:1038A0009D600290CDF804C0FFE7FFE738B070BD1F
:1038B00084B001460290029890F8390021280091C6
:1038C00042D1FFE702988068B0F5805F1AD1FFE728
:1038D0000298006A0190019800886FF35F200299B6
:1038E0000968486002980069002805D1FFE702983E
:1038F000016A0231016204E00298016A0131016249
:10390000FFE708E00298016A4A1C026208780299FF
:1039100009684860FFE70298C18C0139C184080436
:1039200000280DD1FFE702980068C16821F08001EE
:10393000C16002980068C16841F04001C160FFE7C2
:1039400000208DF80F0003E002208DF80F00FFE744
:103950009DF80F0004B0704780B540F2C000C2F27D
:103960000000FDF741FF80BDFFE7FEE782B00146A2
:103970008DF807009DF90700002800910FDBFFE795
:103980009DF9070000F01F01012202FA01F1400930
:103990004EF20012CEF2000242F82010FFE702B011
:1039A000704700004EF60C50CEF200000068C0F3E5
:1039B0000220704784B00A4603468DF80F0002913A
:1039C0009DF90F000028019200930ADBFFE702989F
:1039D00000019DF90F104EF20042CEF20002885411
:1039E0000BE0029800019DF80F1001F00F014EF658
:1039F0001452CEF200028854FFE704B07047000072
:103A000084B001460390039800F0070001904EF641
:103A10000C50CEF2000002680292029A4FF6FF03A9
:103A20001A400292029A019B42EA03220023C0F24A
:103A3000FA531A430292029A0260009104B070474E
:103A400080B588B000200790FCF7D2FF0690FFF702
:103A500075F9FFF703F8FFF7D9F8FEF7A5FFFFF7B1
:103A6000AFF8FFF705FAFFE740F21400C2F20000DA
:103A70004FF47841018045F2D220C0F6000069463B
:103A80004860102008601E213222C8230590084695
:103A9000049111461A46DDF814C003936346FEF7FD
:103AA000C1FE45F2E120C0F6000069464860059875
:103AB000086046210498039A059BFEF7B3FE45F281
:103AC000EA20C0F6000069464860059808605A215F
:103AD0000498039A059BFEF7A5FEC5E702E008C817
:103AE000121F08C1002AFAD170477047002001E078
:103AF00001C1121F002AFBD1704700000000000026
:103B0000000001020304060708090000000001028A
:103B1000030400000000000000000000000000009E
:103B200000003F40000000000000000030004000A6
:103B300030004000000009000BC03D000BC03D00FC
:103B4000090018C024407FE02240318000001800A6
:103B500024C01B000D803240018003801C402740A0
:103B60001C800740004010006000000000000000C2
:103B700000000000000000001F80204040200000E6
:103B8000402020401F8000000000090006001F8028
:103B9000060009000000040004003F800400040047
:103BA00000000010006000000000000000000400A1
:103BB00004000400040004000000000000400000B5
:103BC000000000000000002001C006003800400096
:103BD00000001F802040204020401F800000000087
:103BE00010403FC000400000000018C021402240AB
:103BF00024401840000010802040244024401B80B6
:103C0000000002000D0011003FC0014000003C8098
:103C1000244024402440238000001F80244024406E
:103C20003440038000003000200027C0380020000E
:103C300000001B802440244024401B8000001C0006
:103C400022C0224022401F800000000000000840E7
:103C50000000000000000000000004600000000000
:103C60000000000004000A0011002080404009000C
:103C70000900090009000900000000004040208000
:103C800011000A000400180020002340240018003E
:103C900000001F802040274029401F4000000040B6
:103CA00007C039000F0001C0004020403FC0244041
:103CB00024401B8000001F80204020402040308096
:103CC000000020403FC0204020401F8000002040D6
:103CD0003FC024402E4030C0000020403FC0244060
:103CE0002E00300000000F00108020402240338062
:103CF000020020403FC0040004003FC0204020409C
:103D000020403FC0204020400000006020202020B4
:103D10003FC02000200020403FC024400B0030C0A6
:103D2000204020403FC020400040004000C03FC035
:103D30003C0003C03C003FC0000020403FC00C409E
:103D400023003FC020001F802040204020401F80D3
:103D5000000020403FC024402400180000001F80C5
:103D60002140214020E01FA0000020403FC024400F
:103D7000260019C0004018C0244024402240318051
:103D80000000300020403FC02040300000002000F4
:103D90003F80004000403F80200020003E0001C0E6
:103DA000070038002000380007C03C0007C038007A
:103DB0000000204039C0060039C02040000020002B
:103DC000384007C0384020000000304021C0264065
:103DD000384020C00000000000007FE0402040206C
:103DE0000000000070000C00038000400000000094
:103DF000402040207FE00000000000002000400044
:103E00002000000000000010001000100010001042
:103E10000010000000004000000000000000000052
:103E200002800540054003C0004020003FC0044020
:103E3000044003800000000003800440044006406A
:103E4000000000000380044024403FC00040000008
:103E500003800540054003400000000004401FC0EF
:103E6000244024402000000002E005500550065088
:103E7000042020403FC00440040003C00040000074
:103E8000044027C000400000000000100010041093
:103E900027E00000000020403FC00140070004C0B0
:103EA0000440204020403FC000400040000007C0C8
:103EB000040007C0040003C00000044007C0044021
:103EC000040003C00040000003800440044003805D
:103ED0000000041007F004500440038000000000BC
:103EE00003800440045007F00010044007C0024063
:103EF000040004000000000006400540054004C026
:103F00000000000004001F80044000400000040086
:103F100007800040044007C000400400070004C0C0
:103F2000018006000400060001C0070001C0060071
:103F30000000044006C0010006C004400000041058
:103F4000071004E00180060004000000044005C0E2
:103F50000640044000000000000004007BE0402018
:103F60000000000000000000FFF000000000000062
:103F700040207BE004000000000040008000400082
:103F800020002000400000000000000000000000B1
:103F90000000000000000000000000001FCC000C2A
:103FA0000000000000000000080030006000080071
:103FB000300060000000022003FC1E20022003FCF1
:103FC0001E200220000000000E1811043FFF108484
:103FD0000C78000000000F0010840F3800C0077834
:103FE00018840078000000780F8410C411240E9803
:103FF00000E4008400080800680070000000000071
:1040000000000000000000000000000007E0181899
:10401000200440020000000040022004181807E0BD
:104020000000000000000240024001800FF001800B
:104030000240024000000080008000800FF80080F5
:104040000080008000000001000D000E0000000054
:104050000000000000000000008000800080008060
:104060000080008000800000000C000C00000000B8
:104070000000000000000000000600180060018041
:10408000060018002000000007F0080810041004C3
:10409000080807F000000000080408041FFC0004E2
:1040A00000040000000000000E0C10141024104446
:1040B00011840E0C000000000C18100411041104EF
:1040C00012880C700000000000E003200424082483
:1040D0001FFC0024000000001F981084110411042C
:1040E000108810700000000007F008881104110407
:1040F00018880070000000001C00100010FC130065
:104100001C001000000000000E38114410841084C0
:1041100011440E38000000000700088C10441044C1
:10412000088807F00000000000000000030C030CEA
:104130000000000000000000000000010106000077
:104140000000000000000000008001400220041078
:104150000808100400000220022002200220022091
:1041600002200220000000001004080804100220B1
:1041700001400080000000000E001200100C106CC6
:1041800010800F00000003E00C1813E4142417C47F
:10419000082807D000000004003C03C41C4007406E
:1041A00000E4001C000410041FFC1104110411049D
:1041B0000E880070000003E00C18100410041004B6
:1041C00010081C10000010041FFC10041004100440
:1041D000080807F0000010041FFC1104110417C4A4
:1041E00010040818000010041FFC1104110017C06F
:1041F00010000800000003E00C1810041004104424
:104200001C780040000010041FFC10840080008017
:1042100010841FFC10040000100410041FFC100484
:1042200010040000000000030001100110011FFE37
:1042300010001000000010041FFC1104038014641F
:10424000181C1004000010041FFC100400040004DB
:104250000004000C000010041FFC1F0000FC1F00E5
:104260001FFC1004000010041FFC0C04030000E0FD
:1042700010181FFC100007F00808100410041004A8
:10428000080807F0000010041FFC10841080108044
:1042900010800F00000007F0081810241024101CD4
:1042A000080A07F2000010041FFC1104110011C0DD
:1042B00011300E0C000400000E1C11041084108438
:1042C00010441C3800001800100010041FFC1004DB
:1042D00010001800000010001FF810040004000473
:1042E00010041FF8100010001E0011E0001C0070E8
:1042F00013801C0010001FC0103C00E01F0000E0F5
:10430000103C1FC000001004180C163401C001C07E
:104310001634180C100410001C00130400FC1304C5
:104320001C00100000000804101C1064108413040A
:104330001C04101800000000000000007FFE400276
:10434000400240020000000030000C0003800060CA
:10435000001C0003000000004002400240027FFEFB
:1043600000000000000000000000200040004000AD
:1043700040002000000000010001000100010001D8
:10438000000100010001000040004000200000008A
:1043900000000000000000000098012401440144D6
:1043A000014400FC000410001FFC0088010401040B
:1043B0000088007000000000007000880104010403
:1043C000010400880000000000700088010401045E
:1043D00011081FFC0004000000F8014401440144DE
:1043E000014400C800000000010401040FFC110496
:1043F000110411001800000000D60129012901292B
:1044000001C90106000010041FFC00840100010026
:10441000010400FC000400000104190419FC00045C
:104420000004000000000000000300010101190168
:1044300019FE0000000010041FFC0024004001B41D
:10444000010C010400000000100410041FFC000413
:10445000000400000000010401FC0104010001FC53
:104460000104010000FC010401FC008401000100C2
:10447000010400FC0004000000F801040104010430
:10448000010400F80000010101FF0085010401049E
:104490000088007000000000007000880104010422
:1044A000010501FF00010104010401FC0084010475
:1044B000010001800000000000CC0124012401243F
:1044C00001240198000000000100010007F8010428
:1044D000010400000000010001F8000400040004D1
:1044E000010801FC0004010001800170000C0010B3
:1044F00001600180010001F0010C003001C00030BA
:10450000010C01F0010000000104018C0074017035
:10451000018C01040000010101810171000E0018ED
:1045200001600180010000000184010C013401449C
:104530000184010C000000000000000000000100E8
:104540003EFC400240020000000000000000FFFFAF
:104550000000000000000000400240023EFC01009C
:1045600000000000000000006000800080004000AB
:1045700040002000200000000000000000000000BB
:10458000000000000000000000000000000000002B
:10459000000000000000000000000000000000001B
:1045A0000000000000000000000F80380FFE380FF0
:1045B0008038000000000000000000000000000043
:1045C000000000000100000600000C0000380000A0
:1045D0003100000600000C00003800003000000030
:1045E00000000000000061800067F807F9800061AA
:1045F000800061800061800061800067F807F980B9
:1046000000618000000000000000000001C0E00325
:10461000E0F00630080418081FFFFE040E080787A4
:10462000F00381E000000000000001F000060C0033
:10463000040408060C7001F9C0000E00003BE00005
:10464000EC18070808040C180003E0000000000143
:10465000E00007F003F818041C0804170807E1D06D
:1046600003C0E00023B0003C080020080000100058
:1046700000000000000100003100003200001C00BA
:10468000000000000000000000000000000000002A
:10469000000000000000000000000000000000001A
:1046A0000000000000007F0001FFC00780F00C0048
:1046B000181000042000020000000000002000028A
:1046C0001000040C00180780F001FFC0007F0000FC
:1046D00000000000000000000000000000000000DA
:1046E00000004200006600006600003C0000180068
:1046F00003FFC0001800003C0000660000660000D8
:104700004200000000000800000800000800000847
:104710000000080001FFC0000800000800000800B9
:104720000008000008000000000000010000310047
:10473000003200001C00000000000000000000002B
:104740000000000000000000000000000000080061
:104750000008000008000008000008000008000031
:104760000800000800000800000800000000000029
:104770000000000000003800003800003800000091
:104780000000000000000000000000000000000029
:10479000000000000000000600001C000070000186
:1047A00080000E0000380000C0000700001C000060
:1047B000300000000000000000007F8001FFE003E7
:1047C0008070060018040008040008060018038022
:1047D0007001FFE0007F800000000000000000008A
:1047E00001000801000801000803FFF807FFF800B6
:1047F00000080000080000080000000000000000A1
:104800000001C03802C058040098040118040218BE
:10481000040418061C1803F81801E0F80000000052
:10482000000000000001C0E003C0F004000804081C
:104830000804080806180803F41801E7F00001E06E
:10484000000000000000000000000300000D000058
:10485000110000610000810803010807FFF80FFF45
:10486000F80001080001080000000000000000E05E
:1048700007FCD006080806100806100806100806EF
:104880001838060FF00607C0000000000000000006
:1048900000003F8001FFE003843002081804100884
:1048A000041008041008071810030FF00007C000D8
:1048B000000000000000000003C000070000060028
:1048C000000600F80607F806180006E000070000DA
:1048D00006000000000000000001E1E003F7F00620
:1048E0003410041808041808040C08040C080616F0
:1048F0001803F3F001C1E000000000000000F80020
:1049000003FC300306380402080402080402080409
:1049100004100308F001FFC0007F00000000000049
:1049200000000000000000000000000000007038DF
:104930000070380070380000000000000000000027
:104940000000000000000000000000000000000067
:104950000000301A00301C000000000000000000C1
:10496000000000000000000000000000000800003F
:10497000140000220000410000808001004002007D
:1049800020040010080008000000000000002100C2
:104990000021000021000021000021000021000072
:1049A0002100002100002100002100000000000083
:1049B0000000000008000804001002002001004070
:1049C0000080800041000022000014000008000068
:1049D000000000000003C00004C000040000080044
:1049E00038080F380808380810000C300007E000BD
:1049F00003C000000000000000003F8000FFE00353
:104A00008070020F1006708804C088048308047F39
:104A10008802C09003012000FE400000080000183A
:104A20000001F8003E0801C20007020007E2000092
:104A3000FE00001FC80001F8000038000008040054
:104A40000807FFF807FFF804080804080804080826
:104A500004080806180803F41801E7F00001E00054
:104A60000000000000003F8001FFE00380700200B2
:104A700018040008040008040008040010060020C0
:104A80000780C000000004000807FFF807FFF804D3
:104A90000008040008040008040018020010038045
:104AA0007001FFE0007F8000000004000807FFF8AD
:104AB00007FFF804080804080804080804080804A4
:104AC0003E08040008060018010060000000040011
:104AD0000807FFF807FFF8040808040800040800A6
:104AE000040800043E0006000006000001800000EB
:104AF0000000000000003F8001FFE003807006001E
:104B0000180400080402080402080203F00783F0F6
:104B100000020000020004000807FFF807FFF80485
:104B20000808000800000800000800000800040849
:104B30000807FFF807FFF804000800000000000065
:104B400004000804000804000807FFF807FFF80441
:104B50000008040008040008000000000000000035
:104B6000000000060000070000010400010400012D
:104B700004000307FFFE07FFFC040000040000041C
:104B8000000004000807FFF807FFF8040C080018ED
:104B900000003E0004C7800503C80600F804003882
:104BA00004001800000804000807FFF807FFF804D5
:104BB00000080000080000080000080000080000CD
:104BC0000800001800006000000004000807FFF85B
:104BD00007800807FC00007FC00003F80007C00042
:104BE000780007800807FFF807FFF80400080400B2
:104BF0000807FFF807000803C00000E000003800C5
:104C0000001E000007000001C00400F007FFF804C8
:104C10000000000000007F8001FFE00380700600BC
:104C20001804000804000806001803003001FFE023
:104C3000007F8000000004000807FFF807FFF80469
:104C40000408040400040400040400040400060C26
:104C50000003F80001F000000000000000007F8069
:104C600001FFE00380700600880400880400C80685
:104C7000003C03003E01FFE6007F840000000400CA
:104C80000807FFF807FFF8040808040800040C00F0
:104C9000040F00040BC00610F003F03801E0080018
:104CA000000800000001E0F803F03006301004189E
:104CB00008041808040C08040C080206180207F07F
:104CC0000781E000000001800006000004000004ED
:104CD000000004000807FFF807FFF80400080400BC
:104CE0000004000006000001800004000007FFE04F
:104CF00007FFF0040018000008000008000008008A
:104D0000000800000804001007FFE0040000040091
:104D10000006000007E00007FE00041FE00001F8A5
:104D20000000380001E0043E0007C0000600000457
:104D3000000004000007E00007FFC0041FF80007A0
:104D4000C007F80007FF80043FF80007C004F80020
:104D50000700000400000000000400080600180717
:104D6000C07805F1C8003E00001F800463E807809A
:104D7000F806001804000800000004000006000007
:104D800007800007E008047C08001FF80007F8000F
:104D9000180804E0080700000600000400000000F6
:104DA000000100080600380400F80403E8040F08B6
:104DB000047C0805F00807C008070018040060001C
:104DC00000000000000000000000000000000000E3
:104DD000003FFFFE2000022000022000022000020F
:104DE0002000020000000000000000000800000792
:104DF000000000C0000038000006000001C00000F4
:104E00003000000E00000100000000000000000063
:104E10002000022000022000022000022000023FA9
:104E2000FFFE000000000000000000000000000085
:104E3000000000000000000800001000003000002A
:104E400020000030000010000008000000000000FA
:104E5000000000000100000100000100000100004E
:104E6000010000010000010000010000010000013C
:104E70000000010000010000000000000000002010
:104E800000002000001000001000000000000000E2
:104E9000000000000000000000000000000000F022
:104EA0000019F8001B18002208002608002408003A
:104EB0002410003FF8001FF8000008000018000050
:104EC0000004000007FFF80FFFF00018180010089A
:104ED000002008002008003018001FF0000FC0005C
:104EE00000000000000007C0001FF0001830002084
:104EF00008002008002008003C08001C100000608A
:104F00000000000000000000000007C0001FF000CB
:104F1000381800200800200800200804101007FF9F
:104F2000F80FFFF00000100000000000000000007B
:104F30000007C0001FF000123000221800220800F5
:104F40002208003208001E10000E200000000000A1
:104F50000000200000200800200801FFF803FFF8EF
:104F60000620080420080420080720000300000091
:104F7000000000000000000E000E6E001FF3003164
:104F8000B10020B10020B1003191001F13002E1E8E
:104F900000200E00300000000004000807FFF80F9A
:104FA000FFF8001008002000002000002008003F4B
:104FB000F8001FF8000008000000000000000000DA
:104FC000002008002008002008063FF8063FF800EF
:104FD00000080000080000080000000000000000B9
:104FE0000000000000000300000300200100200179
:104FF000002003063FFE063FFC000000000000000A
:10500000000000000004000807FFF80FFFF800018F
:1050100088000300002FC00038F800203800200866
:105020000000080000000000000000000400080468
:10503000000804000807FFF80FFFF8000008000050
:1050400008000008000000000000002008003FF8F1
:10505000003FF8001008002000003FF8003FF80073
:105060001008002000003FF8003FF8000008000092
:1050700000002008003FF8003FF800100800100072
:10508000002000002008003FF8001FF80000080082
:1050900000000000000007C0000FF00018300030D2
:1050A00008002008002008003008001830000FF029
:1050B0000007C0000000000000002001003FFF00CA
:1050C0003FFF0010110020090020080020080030D8
:1050D00038001FF0000FC00000000000000007C0F3
:1050E000001FF000381800200800200800200900E8
:1050F0001011001FFF003FFF000001000000002012
:1051000008002008002008003FF8003FF8000808C9
:1051100000100800200800200000300000300000CF
:105120000000000000000000000C78001E18003392
:10513000080023080021080021880021980030F091
:105140000038600000000000000020000020000087
:10515000200000FFF003FFF80020080020080020D6
:1051600008000030000000000000000000002000E7
:10517000003FF0007FF80000180000080000080061
:105180002010003FF8007FF0000010000000000039
:1051900000002000003000003C00003F800023F0B1
:1051A000000078000070002380003C000030000008
:1051B0002000002000003C00003FE00023F8000039
:1051C000E0002700003E00003FE00021F80001E081
:1051D000003E000020000000000020080020080021
:1051E0003838003E680027800003C8002CF80038DB
:1051F00038002018002008000000000000002000F7
:10520000003003003C01003F830023EC00007000ED
:105210002380003C0000200000200000000000006F
:10522000000000000038080020380020F80023E8C3
:10523000002F88003E080038080020180000700089
:10524000000000000000000000000000000000005E
:10525000000008000014001FF7FC300006200002C8
:10526000000000000000000000000000000000003E
:105270000000000000000000FFFFFF000000000031
:10528000000000000000000000000000000000001E
:105290002000023000061FF7FC0014000008000088
:1052A00000000000000000000000000000000000FE
:1052B00000180000600000400000400000200000D6
:1052C0001000000800000400000400000C000010A2
:1052D00000006D63756465762053544D3332463457
:1052E000005350492054455354006D6375646576EE
:1052F0002E74616F62616F2E636F6D002053000822
:105300000000002010000000DC3A000830530008C4
:105310001000002008050000EC3A00080000000022
:10532000FFFF00000024F400010000001000000056
:040000050800018965
:00000001FF
